{"hex": "02000000000102f3ac5b4a5c6f73244a552c66b79f50bdb32a47a46d0ce9276b41e9172d7adb00000080b500483045022100f6b0dc6be5b8fd281fc252a5886741a581c55cce9533eaa684db0423b14db89802202ca6db4a51fb8329bf0934e91a5fbe1ac40838db820fb4ccd192bf8820e8a289014c695221035cb05851130ee7aa09ca43dae988d36ab6b8dbb06dd3948295b919084056d4ce2103925c07cdc8b04b6f4ab84e6e120648d91517911d2a28decf9ad37cae333413a52102de3441f8a7ecb17417cc764143bda6f19ee5dc85de94534af5a411cd6ef12b5953aeffffffff00000000000000000000000000000000000000000000000000000000000000000000000000000000000000000000000000000000000000000000000000000000010000000005f67de101000000174876e8000301c4e9629ca7732076cd3cf718afbbe9b766b6205d52f0ec9ba969530d91ae8d1e010000000005f67de1001976a914f33d87bc4bc02ad6aea4ad0ada00abbf329f894d88ac01858e1eb088c92cb0cc333e780ce3bfff716f844bb876fe09df3d9280f4b9023501000000174876e800001976a914c94289a0b37288815b690d3447d2985ee22b0e2a88ac0188272a3960eb4ebad8991fdff05b976e07e562402db320280216abbb0fc7f5e401000000746a5288000017a91469b4ee09eca516ae4c380b7f7e63a492340517bc8700000000", "complete": false, "errors": [{"txid": "db7a2d17e9416b27e90c6da4472ab3bd509fb7662c554a24736f5c4a5bacf302", "vout": 0, "scriptSig": "00483045022100f6b0dc6be5b8fd281fc252a5886741a581c55cce9533eaa684db0423b14db89802202ca6db4a51fb8329bf0934e91a5fbe1ac40838db820fb4ccd192bf8820e8a289014c695221035cb05851130ee7aa09ca43dae988d36ab6b8dbb06dd3948295b919084056d4ce2103925c07cdc8b04b6f4ab84e6e120648d91517911d2a28decf9ad37cae333413a52102de3441f8a7ecb17417cc764143bda6f19ee5dc85de94534af5a411cd6ef12b5953ae", "sequence": 4294967295, "error": "Operation not valid with the current stack size"}], "scriptPubKey": "a91469b4ee09eca516ae4c380b7f7e63a492340517bc87", "txid": "db7a2d17e9416b27e90c6da4472ab3bd509fb7662c554a24736f5c4a5bacf302", "vout": "0", "asset": "1e8dae910d5369a99becf0525d20b666b7e9bbaf18f73ccd762073a79c62e9c4"}